{
	"data": {
		"bytecode": {
			"linkReferences": {},
			"object": "6080604052348015600e575f80fd5b506113bf8061001c5f395ff3fe608060405234801561000f575f80fd5b5060043610610140575f3560e01c80639e7a13ad116100b6578063ba42a6791161007a578063ba42a67914610363578063bca353be1461037f578063c19d93fb14610389578063cb6a33f8146103a7578063e0819c9a146103d7578063e289822c146103f557610140565b80639e7a13ad146102ac578063a621d15e146102dd578063a7e1a364146102fb578063b39e12b514610317578063b63394181461034757610140565b80635c40826c116101085780635c40826c146101fe5780636057361d1461022e5780636f760f411461024a5780638701f8ca146102665780638fda356d1461028457806399b8390a1461028e57610140565b80630cd2636e146101445780631db05a881461016257806322f3e2d41461019257806329cd1d96146101b05780633a32b549146101e0575b5f80fd5b61014c610411565b60405161015991906108d5565b60405180910390f35b61017c60048036038101906101779190610929565b61044d565b60405161018991906108d5565b60405180910390f35b61019a610467565b6040516101a7919061096e565b60405180910390f35b6101ca60048036038101906101c59190610929565b6104a2565b6040516101d791906108d5565b60405180910390f35b6101e86104c2565b6040516101f591906109f7565b60405180910390f35b61021860048036038101906102139190610b43565b6104ff565b60405161022591906108d5565b60405180910390f35b61024860048036038101906102439190610929565b61052c565b005b610264600480360381019061025f9190610b8a565b610535565b005b61026e610596565b60405161027b91906109f7565b60405180910390f35b61028c6105a5565b005b6102966105d0565b6040516102a39190610c9b565b60405180910390f35b6102c660048036038101906102c19190610929565b610626565b6040516102d4929190610cbb565b60405180910390f35b6102e56106db565b6040516102f291906108d5565b60405180910390f35b61031560048036038101906103109190610929565b6106e3565b005b610331600480360381019061032c9190610d46565b61070c565b60405161033e91906109f7565b60405180910390f35b610361600480360381019061035c9190610929565b61073d565b005b61037d60048036038101906103789190610b8a565b610746565b005b61038761076d565b005b610391610799565b60405161039e9190610e04565b60405180910390f35b6103c160048036038101906103bc9190610929565b6107ab565b6040516103ce919061096e565b60405180910390f35b6103df6107c7565b6040516103ec91906109f7565b60405180910390f35b61040f600480360381019061040a9190610929565b61083e565b005b5f805f90505f600190505b5f5481116104455780826104309190610e4a565b9150808061043d90610e7d565b91505061041c565b508091505090565b5f8060058361045c9190610e4a565b905080915050919050565b5f80600181111561047b5761047a610d91565b5b60035f9054906101000a900460ff16600181111561049c5761049b610d91565b5b14905090565b600181815481106104b1575f80fd5b905f5260205f20015f915090505481565b60606040518060400160405280601c81526020017f5468697320697320616e2065787465726e616c2066756e6374696f6e00000000815250905090565b6004818051602081018201805184825260208301602085012081835280955050505050505f915090505481565b805f8190555050565b6002604051806040016040528084815260200183815250908060018154018082558091505060019003905f5260205f2090600202015f909190919091505f820151815f01908161058591906110be565b506020820151816001015550505050565b60606105a0610880565b905090565b5f60035f6101000a81548160ff021916908360018111156105c9576105c8610d91565b5b0217905550565b6060600180548060200260200160405190810160405280929190818152602001828054801561061c57602002820191905f5260205f20905b815481526020019060010190808311610608575b5050505050905090565b60028181548110610635575f80fd5b905f5260205f2090600202015f91509050805f01805461065490610ef1565b80601f016020809104026020016040519081016040528092919081815260200182805461068090610ef1565b80156106cb5780601f106106a2576101008083540402835291602001916106cb565b820191905f5260205f20905b8154815290600101906020018083116106ae57829003601f168201915b5050505050908060010154905082565b5f8054905090565b600181908060018154018082558091505060019003905f5260205f20015f909190919091505550565b60605f8383604051602001610722929190611205565b60405160208183030381529060405290508091505092915050565b805f8190555050565b806004836040516107579190611258565b9081526020016040518091039020819055505050565b600160035f6101000a81548160ff0219169083600181111561079257610791610d91565b5b0217905550565b60035f9054906101000a900460ff1681565b5f815f5411156107be57600190506107c2565b5f90505b919050565b60603073ffffffffffffffffffffffffffffffffffffffff16633a32b5496040518163ffffffff1660e01b81526004015f60405180830381865afa158015610811573d5f803e3d5ffd5b505050506040513d5f823e3d601f19601f8201168201806040525081019061083991906112dc565b905090565b805f819055507fe5f28171f43fc54876f02589c23cc70d19e06f868cc3811c456e8c61c296a27e8133604051610875929190611362565b60405180910390a150565b60606040518060400160405280601c81526020017f5468697320697320616e20696e7465726e616c2066756e6374696f6e00000000815250905090565b5f819050919050565b6108cf816108bd565b82525050565b5f6020820190506108e85f8301846108c6565b92915050565b5f604051905090565b5f80fd5b5f80fd5b610908816108bd565b8114610912575f80fd5b50565b5f81359050610923816108ff565b92915050565b5f6020828403121561093e5761093d6108f7565b5b5f61094b84828501610915565b91505092915050565b5f8115159050919050565b61096881610954565b82525050565b5f6020820190506109815f83018461095f565b92915050565b5f81519050919050565b5f82825260208201905092915050565b8281835e5f83830152505050565b5f601f19601f8301169050919050565b5f6109c982610987565b6109d38185610991565b93506109e38185602086016109a1565b6109ec816109af565b840191505092915050565b5f6020820190508181035f830152610a0f81846109bf565b905092915050565b5f80fd5b5f80fd5b7f4e487b71000000000000000000000000000000000000000000000000000000005f52604160045260245ffd5b610a55826109af565b810181811067ffffffffffffffff82111715610a7457610a73610a1f565b5b80604052505050565b5f610a866108ee565b9050610a928282610a4c565b919050565b5f67ffffffffffffffff821115610ab157610ab0610a1f565b5b610aba826109af565b9050602081019050919050565b828183375f83830152505050565b5f610ae7610ae284610a97565b610a7d565b905082815260208101848484011115610b0357610b02610a1b565b5b610b0e848285610ac7565b509392505050565b5f82601f830112610b2a57610b29610a17565b5b8135610b3a848260208601610ad5565b91505092915050565b5f60208284031215610b5857610b576108f7565b5b5f82013567ffffffffffffffff811115610b7557610b746108fb565b5b610b8184828501610b16565b91505092915050565b5f8060408385031215610ba057610b9f6108f7565b5b5f83013567ffffffffffffffff811115610bbd57610bbc6108fb565b5b610bc985828601610b16565b9250506020610bda85828601610915565b9150509250929050565b5f81519050919050565b5f82825260208201905092915050565b5f819050602082019050919050565b610c16816108bd565b82525050565b5f610c278383610c0d565b60208301905092915050565b5f602082019050919050565b5f610c4982610be4565b610c538185610bee565b9350610c5e83610bfe565b805f5b83811015610c8e578151610c758882610c1c565b9750610c8083610c33565b925050600181019050610c61565b5085935050505092915050565b5f6020820190508181035f830152610cb38184610c3f565b905092915050565b5f6040820190508181035f830152610cd381856109bf565b9050610ce260208301846108c6565b9392505050565b5f80fd5b5f80fd5b5f8083601f840112610d0657610d05610a17565b5b8235905067ffffffffffffffff811115610d2357610d22610ce9565b5b602083019150836001820283011115610d3f57610d3e610ced565b5b9250929050565b5f8060208385031215610d5c57610d5b6108f7565b5b5f83013567ffffffffffffffff811115610d7957610d786108fb565b5b610d8585828601610cf1565b92509250509250929050565b7f4e487b71000000000000000000000000000000000000000000000000000000005f52602160045260245ffd5b60028110610dcf57610dce610d91565b5b50565b5f819050610ddf82610dbe565b919050565b5f610dee82610dd2565b9050919050565b610dfe81610de4565b82525050565b5f602082019050610e175f830184610df5565b92915050565b7f4e487b71000000000000000000000000000000000000000000000000000000005f52601160045260245ffd5b5f610e54826108bd565b9150610e5f836108bd565b9250828201905080821115610e7757610e76610e1d565b5b92915050565b5f610e87826108bd565b91507fffffffffffffffffffffffffffffffffffffffffffffffffffffffffffffffff8203610eb957610eb8610e1d565b5b600182019050919050565b7f4e487b71000000000000000000000000000000000000000000000000000000005f52602260045260245ffd5b5f6002820490506001821680610f0857607f821691505b602082108103610f1b57610f1a610ec4565b5b50919050565b5f819050815f5260205f209050919050565b5f6020601f8301049050919050565b5f82821b905092915050565b5f60088302610f7d7fffffffffffffffffffffffffffffffffffffffffffffffffffffffffffffffff82610f42565b610f878683610f42565b95508019841693508086168417925050509392505050565b5f819050919050565b5f610fc2610fbd610fb8846108bd565b610f9f565b6108bd565b9050919050565b5f819050919050565b610fdb83610fa8565b610fef610fe782610fc9565b848454610f4e565b825550505050565b5f90565b611003610ff7565b61100e818484610fd2565b505050565b5b81811015611031576110265f82610ffb565b600181019050611014565b5050565b601f8211156110765761104781610f21565b61105084610f33565b8101602085101561105f578190505b61107361106b85610f33565b830182611013565b50505b505050565b5f82821c905092915050565b5f6110965f198460080261107b565b1980831691505092915050565b5f6110ae8383611087565b9150826002028217905092915050565b6110c782610987565b67ffffffffffffffff8111156110e0576110df610a1f565b5b6110ea8254610ef1565b6110f5828285611035565b5f60209050601f831160018114611126575f8415611114578287015190505b61111e85826110a3565b865550611185565b601f19841661113486610f21565b5f5b8281101561115b57848901518255600182019150602085019450602081019050611136565b868310156111785784890151611174601f891682611087565b8355505b6001600288020188555050505b505050505050565b5f81905092915050565b5f6111a2838561118d565b93506111af838584610ac7565b82840190509392505050565b7f2069732042656175746966756c210000000000000000000000000000000000005f82015250565b5f6111ef600e8361118d565b91506111fa826111bb565b600e82019050919050565b5f611211828486611197565b915061121c826111e3565b91508190509392505050565b5f61123282610987565b61123c818561118d565b935061124c8185602086016109a1565b80840191505092915050565b5f6112638284611228565b915081905092915050565b5f61128061127b84610a97565b610a7d565b90508281526020810184848401111561129c5761129b610a1b565b5b6112a78482856109a1565b509392505050565b5f82601f8301126112c3576112c2610a17565b5b81516112d384826020860161126e565b91505092915050565b5f602082840312156112f1576112f06108f7565b5b5f82015167ffffffffffffffff81111561130e5761130d6108fb565b5b61131a848285016112af565b91505092915050565b5f73ffffffffffffffffffffffffffffffffffffffff82169050919050565b5f61134c82611323565b9050919050565b61135c81611342565b82525050565b5f6040820190506113755f8301856108c6565b6113826020830184611353565b939250505056fea26469706673582212204697e9eb91bafe4548bf84757f956c1e2f1dc3d08792b32c18f2bdd2c9a4483164736f6c634300081a0033",
			"opcodes": "PUSH1 0x80 PUSH1 0x40 MSTORE CALLVALUE DUP1 ISZERO PUSH1 0xE JUMPI PUSH0 DUP1 REVERT JUMPDEST POP PUSH2 0x13BF DUP1 PUSH2 0x1C PUSH0 CODECOPY PUSH0 RETURN INVALID PUSH1 0x80 PUSH1 0x40 MSTORE CALLVALUE DUP1 ISZERO PUSH2 0xF JUMPI PUSH0 DUP1 REVERT JUMPDEST POP PUSH1 0x4 CALLDATASIZE LT PUSH2 0x140 JUMPI PUSH0 CALLDATALOAD PUSH1 0xE0 SHR DUP1 PUSH4 0x9E7A13AD GT PUSH2 0xB6 JUMPI DUP1 PUSH4 0xBA42A679 GT PUSH2 0x7A JUMPI DUP1 PUSH4 0xBA42A679 EQ PUSH2 0x363 JUMPI DUP1 PUSH4 0xBCA353BE EQ PUSH2 0x37F JUMPI DUP1 PUSH4 0xC19D93FB EQ PUSH2 0x389 JUMPI DUP1 PUSH4 0xCB6A33F8 EQ PUSH2 0x3A7 JUMPI DUP1 PUSH4 0xE0819C9A EQ PUSH2 0x3D7 JUMPI DUP1 PUSH4 0xE289822C EQ PUSH2 0x3F5 JUMPI PUSH2 0x140 JUMP JUMPDEST DUP1 PUSH4 0x9E7A13AD EQ PUSH2 0x2AC JUMPI DUP1 PUSH4 0xA621D15E EQ PUSH2 0x2DD JUMPI DUP1 PUSH4 0xA7E1A364 EQ PUSH2 0x2FB JUMPI DUP1 PUSH4 0xB39E12B5 EQ PUSH2 0x317 JUMPI DUP1 PUSH4 0xB6339418 EQ PUSH2 0x347 JUMPI PUSH2 0x140 JUMP JUMPDEST DUP1 PUSH4 0x5C40826C GT PUSH2 0x108 JUMPI DUP1 PUSH4 0x5C40826C EQ PUSH2 0x1FE JUMPI DUP1 PUSH4 0x6057361D EQ PUSH2 0x22E JUMPI DUP1 PUSH4 0x6F760F41 EQ PUSH2 0x24A JUMPI DUP1 PUSH4 0x8701F8CA EQ PUSH2 0x266 JUMPI DUP1 PUSH4 0x8FDA356D EQ PUSH2 0x284 JUMPI DUP1 PUSH4 0x99B8390A EQ PUSH2 0x28E JUMPI PUSH2 0x140 JUMP JUMPDEST DUP1 PUSH4 0xCD2636E EQ PUSH2 0x144 JUMPI DUP1 PUSH4 0x1DB05A88 EQ PUSH2 0x162 JUMPI DUP1 PUSH4 0x22F3E2D4 EQ PUSH2 0x192 JUMPI DUP1 PUSH4 0x29CD1D96 EQ PUSH2 0x1B0 JUMPI DUP1 PUSH4 0x3A32B549 EQ PUSH2 0x1E0 JUMPI JUMPDEST PUSH0 DUP1 REVERT JUMPDEST PUSH2 0x14C PUSH2 0x411 JUMP JUMPDEST PUSH1 0x40 MLOAD PUSH2 0x159 SWAP2 SWAP1 PUSH2 0x8D5 JUMP JUMPDEST PUSH1 0x40 MLOAD DUP1 SWAP2 SUB SWAP1 RETURN JUMPDEST PUSH2 0x17C PUSH1 0x4 DUP1 CALLDATASIZE SUB DUP2 ADD SWAP1 PUSH2 0x177 SWAP2 SWAP1 PUSH2 0x929 JUMP JUMPDEST PUSH2 0x44D JUMP JUMPDEST PUSH1 0x40 MLOAD PUSH2 0x189 SWAP2 SWAP1 PUSH2 0x8D5 JUMP JUMPDEST PUSH1 0x40 MLOAD DUP1 SWAP2 SUB SWAP1 RETURN JUMPDEST PUSH2 0x19A PUSH2 0x467 JUMP JUMPDEST PUSH1 0x40 MLOAD PUSH2 0x1A7 SWAP2 SWAP1 PUSH2 0x96E JUMP JUMPDEST PUSH1 0x40 MLOAD DUP1 SWAP2 SUB SWAP1 RETURN JUMPDEST PUSH2 0x1CA PUSH1 0x4 DUP1 CALLDATASIZE SUB DUP2 ADD SWAP1 PUSH2 0x1C5 SWAP2 SWAP1 PUSH2 0x929 JUMP JUMPDEST PUSH2 0x4A2 JUMP JUMPDEST PUSH1 0x40 MLOAD PUSH2 0x1D7 SWAP2 SWAP1 PUSH2 0x8D5 JUMP JUMPDEST PUSH1 0x40 MLOAD DUP1 SWAP2 SUB SWAP1 RETURN JUMPDEST PUSH2 0x1E8 PUSH2 0x4C2 JUMP JUMPDEST PUSH1 0x40 MLOAD PUSH2 0x1F5 SWAP2 SWAP1 PUSH2 0x9F7 JUMP JUMPDEST PUSH1 0x40 MLOAD DUP1 SWAP2 SUB SWAP1 RETURN JUMPDEST PUSH2 0x218 PUSH1 0x4 DUP1 CALLDATASIZE SUB DUP2 ADD SWAP1 PUSH2 0x213 SWAP2 SWAP1 PUSH2 0xB43 JUMP JUMPDEST PUSH2 0x4FF JUMP JUMPDEST PUSH1 0x40 MLOAD PUSH2 0x225 SWAP2 SWAP1 PUSH2 0x8D5 JUMP JUMPDEST PUSH1 0x40 MLOAD DUP1 SWAP2 SUB SWAP1 RETURN JUMPDEST PUSH2 0x248 PUSH1 0x4 DUP1 CALLDATASIZE SUB DUP2 ADD SWAP1 PUSH2 0x243 SWAP2 SWAP1 PUSH2 0x929 JUMP JUMPDEST PUSH2 0x52C JUMP JUMPDEST STOP JUMPDEST PUSH2 0x264 PUSH1 0x4 DUP1 CALLDATASIZE SUB DUP2 ADD SWAP1 PUSH2 0x25F SWAP2 SWAP1 PUSH2 0xB8A JUMP JUMPDEST PUSH2 0x535 JUMP JUMPDEST STOP JUMPDEST PUSH2 0x26E PUSH2 0x596 JUMP JUMPDEST PUSH1 0x40 MLOAD PUSH2 0x27B SWAP2 SWAP1 PUSH2 0x9F7 JUMP JUMPDEST PUSH1 0x40 MLOAD DUP1 SWAP2 SUB SWAP1 RETURN JUMPDEST PUSH2 0x28C PUSH2 0x5A5 JUMP JUMPDEST STOP JUMPDEST PUSH2 0x296 PUSH2 0x5D0 JUMP JUMPDEST PUSH1 0x40 MLOAD PUSH2 0x2A3 SWAP2 SWAP1 PUSH2 0xC9B JUMP JUMPDEST PUSH1 0x40 MLOAD DUP1 SWAP2 SUB SWAP1 RETURN JUMPDEST PUSH2 0x2C6 PUSH1 0x4 DUP1 CALLDATASIZE SUB DUP2 ADD SWAP1 PUSH2 0x2C1 SWAP2 SWAP1 PUSH2 0x929 JUMP JUMPDEST PUSH2 0x626 JUMP JUMPDEST PUSH1 0x40 MLOAD PUSH2 0x2D4 SWAP3 SWAP2 SWAP1 PUSH2 0xCBB JUMP JUMPDEST PUSH1 0x40 MLOAD DUP1 SWAP2 SUB SWAP1 RETURN JUMPDEST PUSH2 0x2E5 PUSH2 0x6DB JUMP JUMPDEST PUSH1 0x40 MLOAD PUSH2 0x2F2 SWAP2 SWAP1 PUSH2 0x8D5 JUMP JUMPDEST PUSH1 0x40 MLOAD DUP1 SWAP2 SUB SWAP1 RETURN JUMPDEST PUSH2 0x315 PUSH1 0x4 DUP1 CALLDATASIZE SUB DUP2 ADD SWAP1 PUSH2 0x310 SWAP2 SWAP1 PUSH2 0x929 JUMP JUMPDEST PUSH2 0x6E3 JUMP JUMPDEST STOP JUMPDEST PUSH2 0x331 PUSH1 0x4 DUP1 CALLDATASIZE SUB DUP2 ADD SWAP1 PUSH2 0x32C SWAP2 SWAP1 PUSH2 0xD46 JUMP JUMPDEST PUSH2 0x70C JUMP JUMPDEST PUSH1 0x40 MLOAD PUSH2 0x33E SWAP2 SWAP1 PUSH2 0x9F7 JUMP JUMPDEST PUSH1 0x40 MLOAD DUP1 SWAP2 SUB SWAP1 RETURN JUMPDEST PUSH2 0x361 PUSH1 0x4 DUP1 CALLDATASIZE SUB DUP2 ADD SWAP1 PUSH2 0x35C SWAP2 SWAP1 PUSH2 0x929 JUMP JUMPDEST PUSH2 0x73D JUMP JUMPDEST STOP JUMPDEST PUSH2 0x37D PUSH1 0x4 DUP1 CALLDATASIZE SUB DUP2 ADD SWAP1 PUSH2 0x378 SWAP2 SWAP1 PUSH2 0xB8A JUMP JUMPDEST PUSH2 0x746 JUMP JUMPDEST STOP JUMPDEST PUSH2 0x387 PUSH2 0x76D JUMP JUMPDEST STOP JUMPDEST PUSH2 0x391 PUSH2 0x799 JUMP JUMPDEST PUSH1 0x40 MLOAD PUSH2 0x39E SWAP2 SWAP1 PUSH2 0xE04 JUMP JUMPDEST PUSH1 0x40 MLOAD DUP1 SWAP2 SUB SWAP1 RETURN JUMPDEST PUSH2 0x3C1 PUSH1 0x4 DUP1 CALLDATASIZE SUB DUP2 ADD SWAP1 PUSH2 0x3BC SWAP2 SWAP1 PUSH2 0x929 JUMP JUMPDEST PUSH2 0x7AB JUMP JUMPDEST PUSH1 0x40 MLOAD PUSH2 0x3CE SWAP2 SWAP1 PUSH2 0x96E JUMP JUMPDEST PUSH1 0x40 MLOAD DUP1 SWAP2 SUB SWAP1 RETURN JUMPDEST PUSH2 0x3DF PUSH2 0x7C7 JUMP JUMPDEST PUSH1 0x40 MLOAD PUSH2 0x3EC SWAP2 SWAP1 PUSH2 0x9F7 JUMP JUMPDEST PUSH1 0x40 MLOAD DUP1 SWAP2 SUB SWAP1 RETURN JUMPDEST PUSH2 0x40F PUSH1 0x4 DUP1 CALLDATASIZE SUB DUP2 ADD SWAP1 PUSH2 0x40A SWAP2 SWAP1 PUSH2 0x929 JUMP JUMPDEST PUSH2 0x83E JUMP JUMPDEST STOP JUMPDEST PUSH0 DUP1 PUSH0 SWAP1 POP PUSH0 PUSH1 0x1 SWAP1 POP JUMPDEST PUSH0 SLOAD DUP2 GT PUSH2 0x445 JUMPI DUP1 DUP3 PUSH2 0x430 SWAP2 SWAP1 PUSH2 0xE4A JUMP JUMPDEST SWAP2 POP DUP1 DUP1 PUSH2 0x43D SWAP1 PUSH2 0xE7D JUMP JUMPDEST SWAP2 POP POP PUSH2 0x41C JUMP JUMPDEST POP DUP1 SWAP2 POP POP SWAP1 JUMP JUMPDEST PUSH0 DUP1 PUSH1 0x5 DUP4 PUSH2 0x45C SWAP2 SWAP1 PUSH2 0xE4A JUMP JUMPDEST SWAP1 POP DUP1 SWAP2 POP POP SWAP2 SWAP1 POP JUMP JUMPDEST PUSH0 DUP1 PUSH1 0x1 DUP2 GT ISZERO PUSH2 0x47B JUMPI PUSH2 0x47A PUSH2 0xD91 JUMP JUMPDEST JUMPDEST PUSH1 0x3 PUSH0 SWAP1 SLOAD SWAP1 PUSH2 0x100 EXP SWAP1 DIV PUSH1 0xFF AND PUSH1 0x1 DUP2 GT ISZERO PUSH2 0x49C JUMPI PUSH2 0x49B PUSH2 0xD91 JUMP JUMPDEST JUMPDEST EQ SWAP1 POP SWAP1 JUMP JUMPDEST PUSH1 0x1 DUP2 DUP2 SLOAD DUP2 LT PUSH2 0x4B1 JUMPI PUSH0 DUP1 REVERT JUMPDEST SWAP1 PUSH0 MSTORE PUSH1 0x20 PUSH0 KECCAK256 ADD PUSH0 SWAP2 POP SWAP1 POP SLOAD DUP2 JUMP JUMPDEST PUSH1 0x60 PUSH1 0x40 MLOAD DUP1 PUSH1 0x40 ADD PUSH1 0x40 MSTORE DUP1 PUSH1 0x1C DUP2 MSTORE PUSH1 0x20 ADD PUSH32 0x5468697320697320616E2065787465726E616C2066756E6374696F6E00000000 DUP2 MSTORE POP SWAP1 POP SWAP1 JUMP JUMPDEST PUSH1 0x4 DUP2 DUP1 MLOAD PUSH1 0x20 DUP2 ADD DUP3 ADD DUP1 MLOAD DUP5 DUP3 MSTORE PUSH1 0x20 DUP4 ADD PUSH1 0x20 DUP6 ADD KECCAK256 DUP2 DUP4 MSTORE DUP1 SWAP6 POP POP POP POP POP POP PUSH0 SWAP2 POP SWAP1 POP SLOAD DUP2 JUMP JUMPDEST DUP1 PUSH0 DUP2 SWAP1 SSTORE POP POP JUMP JUMPDEST PUSH1 0x2 PUSH1 0x40 MLOAD DUP1 PUSH1 0x40 ADD PUSH1 0x40 MSTORE DUP1 DUP5 DUP2 MSTORE PUSH1 0x20 ADD DUP4 DUP2 MSTORE POP SWAP1 DUP1 PUSH1 0x1 DUP2 SLOAD ADD DUP1 DUP3 SSTORE DUP1 SWAP2 POP POP PUSH1 0x1 SWAP1 SUB SWAP1 PUSH0 MSTORE PUSH1 0x20 PUSH0 KECCAK256 SWAP1 PUSH1 0x2 MUL ADD PUSH0 SWAP1 SWAP2 SWAP1 SWAP2 SWAP1 SWAP2 POP PUSH0 DUP3 ADD MLOAD DUP2 PUSH0 ADD SWAP1 DUP2 PUSH2 0x585 SWAP2 SWAP1 PUSH2 0x10BE JUMP JUMPDEST POP PUSH1 0x20 DUP3 ADD MLOAD DUP2 PUSH1 0x1 ADD SSTORE POP POP POP POP JUMP JUMPDEST PUSH1 0x60 PUSH2 0x5A0 PUSH2 0x880 JUMP JUMPDEST SWAP1 POP SWAP1 JUMP JUMPDEST PUSH0 PUSH1 0x3 PUSH0 PUSH2 0x100 EXP DUP2 SLOAD DUP2 PUSH1 0xFF MUL NOT AND SWAP1 DUP4 PUSH1 0x1 DUP2 GT ISZERO PUSH2 0x5C9 JUMPI PUSH2 0x5C8 PUSH2 0xD91 JUMP JUMPDEST JUMPDEST MUL OR SWAP1 SSTORE POP JUMP JUMPDEST PUSH1 0x60 PUSH1 0x1 DUP1 SLOAD DUP1 PUSH1 0x20 MUL PUSH1 0x20 ADD PUSH1 0x40 MLOAD SWAP1 DUP2 ADD PUSH1 0x40 MSTORE DUP1 SWAP3 SWAP2 SWAP1 DUP2 DUP2 MSTORE PUSH1 0x20 ADD DUP3 DUP1 SLOAD DUP1 ISZERO PUSH2 0x61C JUMPI PUSH1 0x20 MUL DUP3 ADD SWAP2 SWAP1 PUSH0 MSTORE PUSH1 0x20 PUSH0 KECCAK256 SWAP1 JUMPDEST DUP2 SLOAD DUP2 MSTORE PUSH1 0x20 ADD SWAP1 PUSH1 0x1 ADD SWAP1 DUP1 DUP4 GT PUSH2 0x608 JUMPI JUMPDEST POP POP POP POP POP SWAP1 POP SWAP1 JUMP JUMPDEST PUSH1 0x2 DUP2 DUP2 SLOAD DUP2 LT PUSH2 0x635 JUMPI PUSH0 DUP1 REVERT JUMPDEST SWAP1 PUSH0 MSTORE PUSH1 0x20 PUSH0 KECCAK256 SWAP1 PUSH1 0x2 MUL ADD PUSH0 SWAP2 POP SWAP1 POP DUP1 PUSH0 ADD DUP1 SLOAD PUSH2 0x654 SWAP1 PUSH2 0xEF1 JUMP JUMPDEST DUP1 PUSH1 0x1F ADD PUSH1 0x20 DUP1 SWAP2 DIV MUL PUSH1 0x20 ADD PUSH1 0x40 MLOAD SWAP1 DUP2 ADD PUSH1 0x40 MSTORE DUP1 SWAP3 SWAP2 SWAP1 DUP2 DUP2 MSTORE PUSH1 0x20 ADD DUP3 DUP1 SLOAD PUSH2 0x680 SWAP1 PUSH2 0xEF1 JUMP JUMPDEST DUP1 ISZERO PUSH2 0x6CB JUMPI DUP1 PUSH1 0x1F LT PUSH2 0x6A2 JUMPI PUSH2 0x100 DUP1 DUP4 SLOAD DIV MUL DUP4 MSTORE SWAP2 PUSH1 0x20 ADD SWAP2 PUSH2 0x6CB JUMP JUMPDEST DUP3 ADD SWAP2 SWAP1 PUSH0 MSTORE PUSH1 0x20 PUSH0 KECCAK256 SWAP1 JUMPDEST DUP2 SLOAD DUP2 MSTORE SWAP1 PUSH1 0x1 ADD SWAP1 PUSH1 0x20 ADD DUP1 DUP4 GT PUSH2 0x6AE JUMPI DUP3 SWAP1 SUB PUSH1 0x1F AND DUP3 ADD SWAP2 JUMPDEST POP POP POP POP POP SWAP1 DUP1 PUSH1 0x1 ADD SLOAD SWAP1 POP DUP3 JUMP JUMPDEST PUSH0 DUP1 SLOAD SWAP1 POP SWAP1 JUMP JUMPDEST PUSH1 0x1 DUP2 SWAP1 DUP1 PUSH1 0x1 DUP2 SLOAD ADD DUP1 DUP3 SSTORE DUP1 SWAP2 POP POP PUSH1 0x1 SWAP1 SUB SWAP1 PUSH0 MSTORE PUSH1 0x20 PUSH0 KECCAK256 ADD PUSH0 SWAP1 SWAP2 SWAP1 SWAP2 SWAP1 SWAP2 POP SSTORE POP JUMP JUMPDEST PUSH1 0x60 PUSH0 DUP4 DUP4 PUSH1 0x40 MLOAD PUSH1 0x20 ADD PUSH2 0x722 SWAP3 SWAP2 SWAP1 PUSH2 0x1205 JUMP JUMPDEST PUSH1 0x40 MLOAD PUSH1 0x20 DUP2 DUP4 SUB SUB DUP2 MSTORE SWAP1 PUSH1 0x40 MSTORE SWAP1 POP DUP1 SWAP2 POP POP SWAP3 SWAP2 POP POP JUMP JUMPDEST DUP1 PUSH0 DUP2 SWAP1 SSTORE POP POP JUMP JUMPDEST DUP1 PUSH1 0x4 DUP4 PUSH1 0x40 MLOAD PUSH2 0x757 SWAP2 SWAP1 PUSH2 0x1258 JUMP JUMPDEST SWAP1 DUP2 MSTORE PUSH1 0x20 ADD PUSH1 0x40 MLOAD DUP1 SWAP2 SUB SWAP1 KECCAK256 DUP2 SWAP1 SSTORE POP POP POP JUMP JUMPDEST PUSH1 0x1 PUSH1 0x3 PUSH0 PUSH2 0x100 EXP DUP2 SLOAD DUP2 PUSH1 0xFF MUL NOT AND SWAP1 DUP4 PUSH1 0x1 DUP2 GT ISZERO PUSH2 0x792 JUMPI PUSH2 0x791 PUSH2 0xD91 JUMP JUMPDEST JUMPDEST MUL OR SWAP1 SSTORE POP JUMP JUMPDEST PUSH1 0x3 PUSH0 SWAP1 SLOAD SWAP1 PUSH2 0x100 EXP SWAP1 DIV PUSH1 0xFF AND DUP2 JUMP JUMPDEST PUSH0 DUP2 PUSH0 SLOAD GT ISZERO PUSH2 0x7BE JUMPI PUSH1 0x1 SWAP1 POP PUSH2 0x7C2 JUMP JUMPDEST PUSH0 SWAP1 POP JUMPDEST SWAP2 SWAP1 POP JUMP JUMPDEST PUSH1 0x60 ADDRESS PUSH20 0xFFFFFFFFFFFFFFFFFFFFFFFFFFFFFFFFFFFFFFFF AND PUSH4 0x3A32B549 PUSH1 0x40 MLOAD DUP2 PUSH4 0xFFFFFFFF AND PUSH1 0xE0 SHL DUP2 MSTORE PUSH1 0x4 ADD PUSH0 PUSH1 0x40 MLOAD DUP1 DUP4 SUB DUP2 DUP7 GAS STATICCALL ISZERO DUP1 ISZERO PUSH2 0x811 JUMPI RETURNDATASIZE PUSH0 DUP1 RETURNDATACOPY RETURNDATASIZE PUSH0 REVERT JUMPDEST POP POP POP POP PUSH1 0x40 MLOAD RETURNDATASIZE PUSH0 DUP3 RETURNDATACOPY RETURNDATASIZE PUSH1 0x1F NOT PUSH1 0x1F DUP3 ADD AND DUP3 ADD DUP1 PUSH1 0x40 MSTORE POP DUP2 ADD SWAP1 PUSH2 0x839 SWAP2 SWAP1 PUSH2 0x12DC JUMP JUMPDEST SWAP1 POP SWAP1 JUMP JUMPDEST DUP1 PUSH0 DUP2 SWAP1 SSTORE POP PUSH32 0xE5F28171F43FC54876F02589C23CC70D19E06F868CC3811C456E8C61C296A27E DUP2 CALLER PUSH1 0x40 MLOAD PUSH2 0x875 SWAP3 SWAP2 SWAP1 PUSH2 0x1362 JUMP JUMPDEST PUSH1 0x40 MLOAD DUP1 SWAP2 SUB SWAP1 LOG1 POP JUMP JUMPDEST PUSH1 0x60 PUSH1 0x40 MLOAD DUP1 PUSH1 0x40 ADD PUSH1 0x40 MSTORE DUP1 PUSH1 0x1C DUP2 MSTORE PUSH1 0x20 ADD PUSH32 0x5468697320697320616E20696E7465726E616C2066756E6374696F6E00000000 DUP2 MSTORE POP SWAP1 POP SWAP1 JUMP JUMPDEST PUSH0 DUP2 SWAP1 POP SWAP2 SWAP1 POP JUMP JUMPDEST PUSH2 0x8CF DUP2 PUSH2 0x8BD JUMP JUMPDEST DUP3 MSTORE POP POP JUMP JUMPDEST PUSH0 PUSH1 0x20 DUP3 ADD SWAP1 POP PUSH2 0x8E8 PUSH0 DUP4 ADD DUP5 PUSH2 0x8C6 JUMP JUMPDEST SWAP3 SWAP2 POP POP JUMP JUMPDEST PUSH0 PUSH1 0x40 MLOAD SWAP1 POP SWAP1 JUMP JUMPDEST PUSH0 DUP1 REVERT JUMPDEST PUSH0 DUP1 REVERT JUMPDEST PUSH2 0x908 DUP2 PUSH2 0x8BD JUMP JUMPDEST DUP2 EQ PUSH2 0x912 JUMPI PUSH0 DUP1 REVERT JUMPDEST POP JUMP JUMPDEST PUSH0 DUP2 CALLDATALOAD SWAP1 POP PUSH2 0x923 DUP2 PUSH2 0x8FF JUMP JUMPDEST SWAP3 SWAP2 POP POP JUMP JUMPDEST PUSH0 PUSH1 0x20 DUP3 DUP5 SUB SLT ISZERO PUSH2 0x93E JUMPI PUSH2 0x93D PUSH2 0x8F7 JUMP JUMPDEST JUMPDEST PUSH0 PUSH2 0x94B DUP5 DUP3 DUP6 ADD PUSH2 0x915 JUMP JUMPDEST SWAP2 POP POP SWAP3 SWAP2 POP POP JUMP JUMPDEST PUSH0 DUP2 ISZERO ISZERO SWAP1 POP SWAP2 SWAP1 POP JUMP JUMPDEST PUSH2 0x968 DUP2 PUSH2 0x954 JUMP JUMPDEST DUP3 MSTORE POP POP JUMP JUMPDEST PUSH0 PUSH1 0x20 DUP3 ADD SWAP1 POP PUSH2 0x981 PUSH0 DUP4 ADD DUP5 PUSH2 0x95F JUMP JUMPDEST SWAP3 SWAP2 POP POP JUMP JUMPDEST PUSH0 DUP2 MLOAD SWAP1 POP SWAP2 SWAP1 POP JUMP JUMPDEST PUSH0 DUP3 DUP3 MSTORE PUSH1 0x20 DUP3 ADD SWAP1 POP SWAP3 SWAP2 POP POP JUMP JUMPDEST DUP3 DUP2 DUP4 MCOPY PUSH0 DUP4 DUP4 ADD MSTORE POP POP POP JUMP JUMPDEST PUSH0 PUSH1 0x1F NOT PUSH1 0x1F DUP4 ADD AND SWAP1 POP SWAP2 SWAP1 POP JUMP JUMPDEST PUSH0 PUSH2 0x9C9 DUP3 PUSH2 0x987 JUMP JUMPDEST PUSH2 0x9D3 DUP2 DUP6 PUSH2 0x991 JUMP JUMPDEST SWAP4 POP PUSH2 0x9E3 DUP2 DUP6 PUSH1 0x20 DUP7 ADD PUSH2 0x9A1 JUMP JUMPDEST PUSH2 0x9EC DUP2 PUSH2 0x9AF JUMP JUMPDEST DUP5 ADD SWAP2 POP POP SWAP3 SWAP2 POP POP JUMP JUMPDEST PUSH0 PUSH1 0x20 DUP3 ADD SWAP1 POP DUP2 DUP2 SUB PUSH0 DUP4 ADD MSTORE PUSH2 0xA0F DUP2 DUP5 PUSH2 0x9BF JUMP JUMPDEST SWAP1 POP SWAP3 SWAP2 POP POP JUMP JUMPDEST PUSH0 DUP1 REVERT JUMPDEST PUSH0 DUP1 REVERT JUMPDEST PUSH32 0x4E487B7100000000000000000000000000000000000000000000000000000000 PUSH0 MSTORE PUSH1 0x41 PUSH1 0x4 MSTORE PUSH1 0x24 PUSH0 REVERT JUMPDEST PUSH2 0xA55 DUP3 PUSH2 0x9AF JUMP JUMPDEST DUP2 ADD DUP2 DUP2 LT PUSH8 0xFFFFFFFFFFFFFFFF DUP3 GT OR ISZERO PUSH2 0xA74 JUMPI PUSH2 0xA73 PUSH2 0xA1F JUMP JUMPDEST JUMPDEST DUP1 PUSH1 0x40 MSTORE POP POP POP JUMP JUMPDEST PUSH0 PUSH2 0xA86 PUSH2 0x8EE JUMP JUMPDEST SWAP1 POP PUSH2 0xA92 DUP3 DUP3 PUSH2 0xA4C JUMP JUMPDEST SWAP2 SWAP1 POP JUMP JUMPDEST PUSH0 PUSH8 0xFFFFFFFFFFFFFFFF DUP3 GT ISZERO PUSH2 0xAB1 JUMPI PUSH2 0xAB0 PUSH2 0xA1F JUMP JUMPDEST JUMPDEST PUSH2 0xABA DUP3 PUSH2 0x9AF JUMP JUMPDEST SWAP1 POP PUSH1 0x20 DUP2 ADD SWAP1 POP SWAP2 SWAP1 POP JUMP JUMPDEST DUP3 DUP2 DUP4 CALLDATACOPY PUSH0 DUP4 DUP4 ADD MSTORE POP POP POP JUMP JUMPDEST PUSH0 PUSH2 0xAE7 PUSH2 0xAE2 DUP5 PUSH2 0xA97 JUMP JUMPDEST PUSH2 0xA7D JUMP JUMPDEST SWAP1 POP DUP3 DUP2 MSTORE PUSH1 0x20 DUP2 ADD DUP5 DUP5 DUP5 ADD GT ISZERO PUSH2 0xB03 JUMPI PUSH2 0xB02 PUSH2 0xA1B JUMP JUMPDEST JUMPDEST PUSH2 0xB0E DUP5 DUP3 DUP6 PUSH2 0xAC7 JUMP JUMPDEST POP SWAP4 SWAP3 POP POP POP JUMP JUMPDEST PUSH0 DUP3 PUSH1 0x1F DUP4 ADD SLT PUSH2 0xB2A JUMPI PUSH2 0xB29 PUSH2 0xA17 JUMP JUMPDEST JUMPDEST DUP2 CALLDATALOAD PUSH2 0xB3A DUP5 DUP3 PUSH1 0x20 DUP7 ADD PUSH2 0xAD5 JUMP JUMPDEST SWAP2 POP POP SWAP3 SWAP2 POP POP JUMP JUMPDEST PUSH0 PUSH1 0x20 DUP3 DUP5 SUB SLT ISZERO PUSH2 0xB58 JUMPI PUSH2 0xB57 PUSH2 0x8F7 JUMP JUMPDEST JUMPDEST PUSH0 DUP3 ADD CALLDATALOAD PUSH8 0xFFFFFFFFFFFFFFFF DUP2 GT ISZERO PUSH2 0xB75 JUMPI PUSH2 0xB74 PUSH2 0x8FB JUMP JUMPDEST JUMPDEST PUSH2 0xB81 DUP5 DUP3 DUP6 ADD PUSH2 0xB16 JUMP JUMPDEST SWAP2 POP POP SWAP3 SWAP2 POP POP JUMP JUMPDEST PUSH0 DUP1 PUSH1 0x40 DUP4 DUP6 SUB SLT ISZERO PUSH2 0xBA0 JUMPI PUSH2 0xB9F PUSH2 0x8F7 JUMP JUMPDEST JUMPDEST PUSH0 DUP4 ADD CALLDATALOAD PUSH8 0xFFFFFFFFFFFFFFFF DUP2 GT ISZERO PUSH2 0xBBD JUMPI PUSH2 0xBBC PUSH2 0x8FB JUMP JUMPDEST JUMPDEST PUSH2 0xBC9 DUP6 DUP3 DUP7 ADD PUSH2 0xB16 JUMP JUMPDEST SWAP3 POP POP PUSH1 0x20 PUSH2 0xBDA DUP6 DUP3 DUP7 ADD PUSH2 0x915 JUMP JUMPDEST SWAP2 POP POP SWAP3 POP SWAP3 SWAP1 POP JUMP JUMPDEST PUSH0 DUP2 MLOAD SWAP1 POP SWAP2 SWAP1 POP JUMP JUMPDEST PUSH0 DUP3 DUP3 MSTORE PUSH1 0x20 DUP3 ADD SWAP1 POP SWAP3 SWAP2 POP POP JUMP JUMPDEST PUSH0 DUP2 SWAP1 POP PUSH1 0x20 DUP3 ADD SWAP1 POP SWAP2 SWAP1 POP JUMP JUMPDEST PUSH2 0xC16 DUP2 PUSH2 0x8BD JUMP JUMPDEST DUP3 MSTORE POP POP JUMP JUMPDEST PUSH0 PUSH2 0xC27 DUP4 DUP4 PUSH2 0xC0D JUMP JUMPDEST PUSH1 0x20 DUP4 ADD SWAP1 POP SWAP3 SWAP2 POP POP JUMP JUMPDEST PUSH0 PUSH1 0x20 DUP3 ADD SWAP1 POP SWAP2 SWAP1 POP JUMP JUMPDEST PUSH0 PUSH2 0xC49 DUP3 PUSH2 0xBE4 JUMP JUMPDEST PUSH2 0xC53 DUP2 DUP6 PUSH2 0xBEE JUMP JUMPDEST SWAP4 POP PUSH2 0xC5E DUP4 PUSH2 0xBFE JUMP JUMPDEST DUP1 PUSH0 JUMPDEST DUP4 DUP2 LT ISZERO PUSH2 0xC8E JUMPI DUP2 MLOAD PUSH2 0xC75 DUP9 DUP3 PUSH2 0xC1C JUMP JUMPDEST SWAP8 POP PUSH2 0xC80 DUP4 PUSH2 0xC33 JUMP JUMPDEST SWAP3 POP POP PUSH1 0x1 DUP2 ADD SWAP1 POP PUSH2 0xC61 JUMP JUMPDEST POP DUP6 SWAP4 POP POP POP POP SWAP3 SWAP2 POP POP JUMP JUMPDEST PUSH0 PUSH1 0x20 DUP3 ADD SWAP1 POP DUP2 DUP2 SUB PUSH0 DUP4 ADD MSTORE PUSH2 0xCB3 DUP2 DUP5 PUSH2 0xC3F JUMP JUMPDEST SWAP1 POP SWAP3 SWAP2 POP POP JUMP JUMPDEST PUSH0 PUSH1 0x40 DUP3 ADD SWAP1 POP DUP2 DUP2 SUB PUSH0 DUP4 ADD MSTORE PUSH2 0xCD3 DUP2 DUP6 PUSH2 0x9BF JUMP JUMPDEST SWAP1 POP PUSH2 0xCE2 PUSH1 0x20 DUP4 ADD DUP5 PUSH2 0x8C6 JUMP JUMPDEST SWAP4 SWAP3 POP POP POP JUMP JUMPDEST PUSH0 DUP1 REVERT JUMPDEST PUSH0 DUP1 REVERT JUMPDEST PUSH0 DUP1 DUP4 PUSH1 0x1F DUP5 ADD SLT PUSH2 0xD06 JUMPI PUSH2 0xD05 PUSH2 0xA17 JUMP JUMPDEST JUMPDEST DUP3 CALLDATALOAD SWAP1 POP PUSH8 0xFFFFFFFFFFFFFFFF DUP2 GT ISZERO PUSH2 0xD23 JUMPI PUSH2 0xD22 PUSH2 0xCE9 JUMP JUMPDEST JUMPDEST PUSH1 0x20 DUP4 ADD SWAP2 POP DUP4 PUSH1 0x1 DUP3 MUL DUP4 ADD GT ISZERO PUSH2 0xD3F JUMPI PUSH2 0xD3E PUSH2 0xCED JUMP JUMPDEST JUMPDEST SWAP3 POP SWAP3 SWAP1 POP JUMP JUMPDEST PUSH0 DUP1 PUSH1 0x20 DUP4 DUP6 SUB SLT ISZERO PUSH2 0xD5C JUMPI PUSH2 0xD5B PUSH2 0x8F7 JUMP JUMPDEST JUMPDEST PUSH0 DUP4 ADD CALLDATALOAD PUSH8 0xFFFFFFFFFFFFFFFF DUP2 GT ISZERO PUSH2 0xD79 JUMPI PUSH2 0xD78 PUSH2 0x8FB JUMP JUMPDEST JUMPDEST PUSH2 0xD85 DUP6 DUP3 DUP7 ADD PUSH2 0xCF1 JUMP JUMPDEST SWAP3 POP SWAP3 POP POP SWAP3 POP SWAP3 SWAP1 POP JUMP JUMPDEST PUSH32 0x4E487B7100000000000000000000000000000000000000000000000000000000 PUSH0 MSTORE PUSH1 0x21 PUSH1 0x4 MSTORE PUSH1 0x24 PUSH0 REVERT JUMPDEST PUSH1 0x2 DUP2 LT PUSH2 0xDCF JUMPI PUSH2 0xDCE PUSH2 0xD91 JUMP JUMPDEST JUMPDEST POP JUMP JUMPDEST PUSH0 DUP2 SWAP1 POP PUSH2 0xDDF DUP3 PUSH2 0xDBE JUMP JUMPDEST SWAP2 SWAP1 POP JUMP JUMPDEST PUSH0 PUSH2 0xDEE DUP3 PUSH2 0xDD2 JUMP JUMPDEST SWAP1 POP SWAP2 SWAP1 POP JUMP JUMPDEST PUSH2 0xDFE DUP2 PUSH2 0xDE4 JUMP JUMPDEST DUP3 MSTORE POP POP JUMP JUMPDEST PUSH0 PUSH1 0x20 DUP3 ADD SWAP1 POP PUSH2 0xE17 PUSH0 DUP4 ADD DUP5 PUSH2 0xDF5 JUMP JUMPDEST SWAP3 SWAP2 POP POP JUMP JUMPDEST PUSH32 0x4E487B7100000000000000000000000000000000000000000000000000000000 PUSH0 MSTORE PUSH1 0x11 PUSH1 0x4 MSTORE PUSH1 0x24 PUSH0 REVERT JUMPDEST PUSH0 PUSH2 0xE54 DUP3 PUSH2 0x8BD JUMP JUMPDEST SWAP2 POP PUSH2 0xE5F DUP4 PUSH2 0x8BD JUMP JUMPDEST SWAP3 POP DUP3 DUP3 ADD SWAP1 POP DUP1 DUP3 GT ISZERO PUSH2 0xE77 JUMPI PUSH2 0xE76 PUSH2 0xE1D JUMP JUMPDEST JUMPDEST SWAP3 SWAP2 POP POP JUMP JUMPDEST PUSH0 PUSH2 0xE87 DUP3 PUSH2 0x8BD JUMP JUMPDEST SWAP2 POP PUSH32 0xFFFFFFFFFFFFFFFFFFFFFFFFFFFFFFFFFFFFFFFFFFFFFFFFFFFFFFFFFFFFFFFF DUP3 SUB PUSH2 0xEB9 JUMPI PUSH2 0xEB8 PUSH2 0xE1D JUMP JUMPDEST JUMPDEST PUSH1 0x1 DUP3 ADD SWAP1 POP SWAP2 SWAP1 POP JUMP JUMPDEST PUSH32 0x4E487B7100000000000000000000000000000000000000000000000000000000 PUSH0 MSTORE PUSH1 0x22 PUSH1 0x4 MSTORE PUSH1 0x24 PUSH0 REVERT JUMPDEST PUSH0 PUSH1 0x2 DUP3 DIV SWAP1 POP PUSH1 0x1 DUP3 AND DUP1 PUSH2 0xF08 JUMPI PUSH1 0x7F DUP3 AND SWAP2 POP JUMPDEST PUSH1 0x20 DUP3 LT DUP2 SUB PUSH2 0xF1B JUMPI PUSH2 0xF1A PUSH2 0xEC4 JUMP JUMPDEST JUMPDEST POP SWAP2 SWAP1 POP JUMP JUMPDEST PUSH0 DUP2 SWAP1 POP DUP2 PUSH0 MSTORE PUSH1 0x20 PUSH0 KECCAK256 SWAP1 POP SWAP2 SWAP1 POP JUMP JUMPDEST PUSH0 PUSH1 0x20 PUSH1 0x1F DUP4 ADD DIV SWAP1 POP SWAP2 SWAP1 POP JUMP JUMPDEST PUSH0 DUP3 DUP3 SHL SWAP1 POP SWAP3 SWAP2 POP POP JUMP JUMPDEST PUSH0 PUSH1 0x8 DUP4 MUL PUSH2 0xF7D PUSH32 0xFFFFFFFFFFFFFFFFFFFFFFFFFFFFFFFFFFFFFFFFFFFFFFFFFFFFFFFFFFFFFFFF DUP3 PUSH2 0xF42 JUMP JUMPDEST PUSH2 0xF87 DUP7 DUP4 PUSH2 0xF42 JUMP JUMPDEST SWAP6 POP DUP1 NOT DUP5 AND SWAP4 POP DUP1 DUP7 AND DUP5 OR SWAP3 POP POP POP SWAP4 SWAP3 POP POP POP JUMP JUMPDEST PUSH0 DUP2 SWAP1 POP SWAP2 SWAP1 POP JUMP JUMPDEST PUSH0 PUSH2 0xFC2 PUSH2 0xFBD PUSH2 0xFB8 DUP5 PUSH2 0x8BD JUMP JUMPDEST PUSH2 0xF9F JUMP JUMPDEST PUSH2 0x8BD JUMP JUMPDEST SWAP1 POP SWAP2 SWAP1 POP JUMP JUMPDEST PUSH0 DUP2 SWAP1 POP SWAP2 SWAP1 POP JUMP JUMPDEST PUSH2 0xFDB DUP4 PUSH2 0xFA8 JUMP JUMPDEST PUSH2 0xFEF PUSH2 0xFE7 DUP3 PUSH2 0xFC9 JUMP JUMPDEST DUP5 DUP5 SLOAD PUSH2 0xF4E JUMP JUMPDEST DUP3 SSTORE POP POP POP POP JUMP JUMPDEST PUSH0 SWAP1 JUMP JUMPDEST PUSH2 0x1003 PUSH2 0xFF7 JUMP JUMPDEST PUSH2 0x100E DUP2 DUP5 DUP5 PUSH2 0xFD2 JUMP JUMPDEST POP POP POP JUMP JUMPDEST JUMPDEST DUP2 DUP2 LT ISZERO PUSH2 0x1031 JUMPI PUSH2 0x1026 PUSH0 DUP3 PUSH2 0xFFB JUMP JUMPDEST PUSH1 0x1 DUP2 ADD SWAP1 POP PUSH2 0x1014 JUMP JUMPDEST POP POP JUMP JUMPDEST PUSH1 0x1F DUP3 GT ISZERO PUSH2 0x1076 JUMPI PUSH2 0x1047 DUP2 PUSH2 0xF21 JUMP JUMPDEST PUSH2 0x1050 DUP5 PUSH2 0xF33 JUMP JUMPDEST DUP2 ADD PUSH1 0x20 DUP6 LT ISZERO PUSH2 0x105F JUMPI DUP2 SWAP1 POP JUMPDEST PUSH2 0x1073 PUSH2 0x106B DUP6 PUSH2 0xF33 JUMP JUMPDEST DUP4 ADD DUP3 PUSH2 0x1013 JUMP JUMPDEST POP POP JUMPDEST POP POP POP JUMP JUMPDEST PUSH0 DUP3 DUP3 SHR SWAP1 POP SWAP3 SWAP2 POP POP JUMP JUMPDEST PUSH0 PUSH2 0x1096 PUSH0 NOT DUP5 PUSH1 0x8 MUL PUSH2 0x107B JUMP JUMPDEST NOT DUP1 DUP4 AND SWAP2 POP POP SWAP3 SWAP2 POP POP JUMP JUMPDEST PUSH0 PUSH2 0x10AE DUP4 DUP4 PUSH2 0x1087 JUMP JUMPDEST SWAP2 POP DUP3 PUSH1 0x2 MUL DUP3 OR SWAP1 POP SWAP3 SWAP2 POP POP JUMP JUMPDEST PUSH2 0x10C7 DUP3 PUSH2 0x987 JUMP JUMPDEST PUSH8 0xFFFFFFFFFFFFFFFF DUP2 GT ISZERO PUSH2 0x10E0 JUMPI PUSH2 0x10DF PUSH2 0xA1F JUMP JUMPDEST JUMPDEST PUSH2 0x10EA DUP3 SLOAD PUSH2 0xEF1 JUMP JUMPDEST PUSH2 0x10F5 DUP3 DUP3 DUP6 PUSH2 0x1035 JUMP JUMPDEST PUSH0 PUSH1 0x20 SWAP1 POP PUSH1 0x1F DUP4 GT PUSH1 0x1 DUP2 EQ PUSH2 0x1126 JUMPI PUSH0 DUP5 ISZERO PUSH2 0x1114 JUMPI DUP3 DUP8 ADD MLOAD SWAP1 POP JUMPDEST PUSH2 0x111E DUP6 DUP3 PUSH2 0x10A3 JUMP JUMPDEST DUP7 SSTORE POP PUSH2 0x1185 JUMP JUMPDEST PUSH1 0x1F NOT DUP5 AND PUSH2 0x1134 DUP7 PUSH2 0xF21 JUMP JUMPDEST PUSH0 JUMPDEST DUP3 DUP2 LT ISZERO PUSH2 0x115B JUMPI DUP5 DUP10 ADD MLOAD DUP3 SSTORE PUSH1 0x1 DUP3 ADD SWAP2 POP PUSH1 0x20 DUP6 ADD SWAP5 POP PUSH1 0x20 DUP2 ADD SWAP1 POP PUSH2 0x1136 JUMP JUMPDEST DUP7 DUP4 LT ISZERO PUSH2 0x1178 JUMPI DUP5 DUP10 ADD MLOAD PUSH2 0x1174 PUSH1 0x1F DUP10 AND DUP3 PUSH2 0x1087 JUMP JUMPDEST DUP4 SSTORE POP JUMPDEST PUSH1 0x1 PUSH1 0x2 DUP9 MUL ADD DUP9 SSTORE POP POP POP JUMPDEST POP POP POP POP POP POP JUMP JUMPDEST PUSH0 DUP2 SWAP1 POP SWAP3 SWAP2 POP POP JUMP JUMPDEST PUSH0 PUSH2 0x11A2 DUP4 DUP6 PUSH2 0x118D JUMP JUMPDEST SWAP4 POP PUSH2 0x11AF DUP4 DUP6 DUP5 PUSH2 0xAC7 JUMP JUMPDEST DUP3 DUP5 ADD SWAP1 POP SWAP4 SWAP3 POP POP POP JUMP JUMPDEST PUSH32 0x2069732042656175746966756C21000000000000000000000000000000000000 PUSH0 DUP3 ADD MSTORE POP JUMP JUMPDEST PUSH0 PUSH2 0x11EF PUSH1 0xE DUP4 PUSH2 0x118D JUMP JUMPDEST SWAP2 POP PUSH2 0x11FA DUP3 PUSH2 0x11BB JUMP JUMPDEST PUSH1 0xE DUP3 ADD SWAP1 POP SWAP2 SWAP1 POP JUMP JUMPDEST PUSH0 PUSH2 0x1211 DUP3 DUP5 DUP7 PUSH2 0x1197 JUMP JUMPDEST SWAP2 POP PUSH2 0x121C DUP3 PUSH2 0x11E3 JUMP JUMPDEST SWAP2 POP DUP2 SWAP1 POP SWAP4 SWAP3 POP POP POP JUMP JUMPDEST PUSH0 PUSH2 0x1232 DUP3 PUSH2 0x987 JUMP JUMPDEST PUSH2 0x123C DUP2 DUP6 PUSH2 0x118D JUMP JUMPDEST SWAP4 POP PUSH2 0x124C DUP2 DUP6 PUSH1 0x20 DUP7 ADD PUSH2 0x9A1 JUMP JUMPDEST DUP1 DUP5 ADD SWAP2 POP POP SWAP3 SWAP2 POP POP JUMP JUMPDEST PUSH0 PUSH2 0x1263 DUP3 DUP5 PUSH2 0x1228 JUMP JUMPDEST SWAP2 POP DUP2 SWAP1 POP SWAP3 SWAP2 POP POP JUMP JUMPDEST PUSH0 PUSH2 0x1280 PUSH2 0x127B DUP5 PUSH2 0xA97 JUMP JUMPDEST PUSH2 0xA7D JUMP JUMPDEST SWAP1 POP DUP3 DUP2 MSTORE PUSH1 0x20 DUP2 ADD DUP5 DUP5 DUP5 ADD GT ISZERO PUSH2 0x129C JUMPI PUSH2 0x129B PUSH2 0xA1B JUMP JUMPDEST JUMPDEST PUSH2 0x12A7 DUP5 DUP3 DUP6 PUSH2 0x9A1 JUMP JUMPDEST POP SWAP4 SWAP3 POP POP POP JUMP JUMPDEST PUSH0 DUP3 PUSH1 0x1F DUP4 ADD SLT PUSH2 0x12C3 JUMPI PUSH2 0x12C2 PUSH2 0xA17 JUMP JUMPDEST JUMPDEST DUP2 MLOAD PUSH2 0x12D3 DUP5 DUP3 PUSH1 0x20 DUP7 ADD PUSH2 0x126E JUMP JUMPDEST SWAP2 POP POP SWAP3 SWAP2 POP POP JUMP JUMPDEST PUSH0 PUSH1 0x20 DUP3 DUP5 SUB SLT ISZERO PUSH2 0x12F1 JUMPI PUSH2 0x12F0 PUSH2 0x8F7 JUMP JUMPDEST JUMPDEST PUSH0 DUP3 ADD MLOAD PUSH8 0xFFFFFFFFFFFFFFFF DUP2 GT ISZERO PUSH2 0x130E JUMPI PUSH2 0x130D PUSH2 0x8FB JUMP JUMPDEST JUMPDEST PUSH2 0x131A DUP5 DUP3 DUP6 ADD PUSH2 0x12AF JUMP JUMPDEST SWAP2 POP POP SWAP3 SWAP2 POP POP JUMP JUMPDEST PUSH0 PUSH20 0xFFFFFFFFFFFFFFFFFFFFFFFFFFFFFFFFFFFFFFFF DUP3 AND SWAP1 POP SWAP2 SWAP1 POP JUMP JUMPDEST PUSH0 PUSH2 0x134C DUP3 PUSH2 0x1323 JUMP JUMPDEST SWAP1 POP SWAP2 SWAP1 POP JUMP JUMPDEST PUSH2 0x135C DUP2 PUSH2 0x1342 JUMP JUMPDEST DUP3 MSTORE POP POP JUMP JUMPDEST PUSH0 PUSH1 0x40 DUP3 ADD SWAP1 POP PUSH2 0x1375 PUSH0 DUP4 ADD DUP6 PUSH2 0x8C6 JUMP JUMPDEST PUSH2 0x1382 PUSH1 0x20 DUP4 ADD DUP5 PUSH2 0x1353 JUMP JUMPDEST SWAP4 SWAP3 POP POP POP JUMP INVALID LOG2 PUSH5 0x6970667358 0x22 SLT KECCAK256 CHAINID SWAP8 0xE9 0xEB SWAP2 0xBA INVALID GASLIMIT BASEFEE 0xBF DUP5 PUSH22 0x7F956C1E2F1DC3D08792B32C18F2BDD2C9A448316473 PUSH16 0x6C634300081A00330000000000000000 "
		},
		"gasEstimates": {
			"creation": {
				"codeDepositCost": "1011000",
				"executionCost": "1045",
				"totalCost": "1012045"
			},
			"external": {
				"activateContract()": "24539",
				"addFavoriteNumber(uint256)": "46888",
				"addPerson(string,uint256)": "infinite",
				"callInternalFunction()": "infinite",
				"concatenateString(string)": "infinite",
				"deactivateContract()": "24473",
				"externalFunction()": "infinite",
				"favoriteNumbers(uint256)": "infinite",
				"getFavoriteNumber()": "2477",
				"isActive()": "2599",
				"isGreaterThan(uint256)": "2823",
				"nameToFavoriteNumberMapping(string)": "infinite",
				"people(uint256)": "infinite",
				"returnNumbers()": "infinite",
				"setNameToFavoriteNumber(string,uint256)": "infinite",
				"state()": "2620",
				"store(uint256)": "22559",
				"storeNewNumber(uint256)": "infinite",
				"storeNumber(uint256)": "22625",
				"sumToFavoriteNumber()": "infinite",
				"testExternalFunction()": "infinite",
				"updateNumber(uint256)": "infinite"
			},
			"internal": {
				"internalFunction()": "infinite"
			}
		},
		"methodIdentifiers": {
			"activateContract()": "8fda356d",
			"addFavoriteNumber(uint256)": "a7e1a364",
			"addPerson(string,uint256)": "6f760f41",
			"callInternalFunction()": "8701f8ca",
			"concatenateString(string)": "b39e12b5",
			"deactivateContract()": "bca353be",
			"externalFunction()": "3a32b549",
			"favoriteNumbers(uint256)": "29cd1d96",
			"getFavoriteNumber()": "a621d15e",
			"isActive()": "22f3e2d4",
			"isGreaterThan(uint256)": "cb6a33f8",
			"nameToFavoriteNumberMapping(string)": "5c40826c",
			"people(uint256)": "9e7a13ad",
			"returnNumbers()": "99b8390a",
			"setNameToFavoriteNumber(string,uint256)": "ba42a679",
			"state()": "c19d93fb",
			"store(uint256)": "6057361d",
			"storeNewNumber(uint256)": "e289822c",
			"storeNumber(uint256)": "b6339418",
			"sumToFavoriteNumber()": "0cd2636e",
			"testExternalFunction()": "e0819c9a",
			"updateNumber(uint256)": "1db05a88"
		}
	},
	"abi": [
		{
			"anonymous": false,
			"inputs": [
				{
					"indexed": false,
					"internalType": "uint256",
					"name": "newNumber",
					"type": "uint256"
				},
				{
					"indexed": false,
					"internalType": "address",
					"name": "updatedBy",
					"type": "address"
				}
			],
			"name": "NumberUpdated",
			"type": "event"
		},
		{
			"inputs": [],
			"name": "activateContract",
			"outputs": [],
			"stateMutability": "nonpayable",
			"type": "function"
		},
		{
			"inputs": [
				{
					"internalType": "uint256",
					"name": "_number",
					"type": "uint256"
				}
			],
			"name": "addFavoriteNumber",
			"outputs": [],
			"stateMutability": "nonpayable",
			"type": "function"
		},
		{
			"inputs": [
				{
					"internalType": "string",
					"name": "_name",
					"type": "string"
				},
				{
					"internalType": "uint256",
					"name": "_favoriteNumber",
					"type": "uint256"
				}
			],
			"name": "addPerson",
			"outputs": [],
			"stateMutability": "nonpayable",
			"type": "function"
		},
		{
			"inputs": [],
			"name": "callInternalFunction",
			"outputs": [
				{
					"internalType": "string",
					"name": "",
					"type": "string"
				}
			],
			"stateMutability": "pure",
			"type": "function"
		},
		{
			"inputs": [
				{
					"internalType": "string",
					"name": "_inputString",
					"type": "string"
				}
			],
			"name": "concatenateString",
			"outputs": [
				{
					"internalType": "string",
					"name": "",
					"type": "string"
				}
			],
			"stateMutability": "pure",
			"type": "function"
		},
		{
			"inputs": [],
			"name": "deactivateContract",
			"outputs": [],
			"stateMutability": "nonpayable",
			"type": "function"
		},
		{
			"inputs": [],
			"name": "externalFunction",
			"outputs": [
				{
					"internalType": "string",
					"name": "",
					"type": "string"
				}
			],
			"stateMutability": "pure",
			"type": "function"
		},
		{
			"inputs": [
				{
					"internalType": "uint256",
					"name": "",
					"type": "uint256"
				}
			],
			"name": "favoriteNumbers",
			"outputs": [
				{
					"internalType": "uint256",
					"name": "",
					"type": "uint256"
				}
			],
			"stateMutability": "view",
			"type": "function"
		},
		{
			"inputs": [],
			"name": "getFavoriteNumber",
			"outputs": [
				{
					"internalType": "uint256",
					"name": "",
					"type": "uint256"
				}
			],
			"stateMutability": "view",
			"type": "function"
		},
		{
			"inputs": [],
			"name": "isActive",
			"outputs": [
				{
					"internalType": "bool",
					"name": "",
					"type": "bool"
				}
			],
			"stateMutability": "view",
			"type": "function"
		},
		{
			"inputs": [
				{
					"internalType": "uint256",
					"name": "_compareValue",
					"type": "uint256"
				}
			],
			"name": "isGreaterThan",
			"outputs": [
				{
					"internalType": "bool",
					"name": "",
					"type": "bool"
				}
			],
			"stateMutability": "view",
			"type": "function"
		},
		{
			"inputs": [
				{
					"internalType": "string",
					"name": "",
					"type": "string"
				}
			],
			"name": "nameToFavoriteNumberMapping",
			"outputs": [
				{
					"internalType": "uint256",
					"name": "",
					"type": "uint256"
				}
			],
			"stateMutability": "view",
			"type": "function"
		},
		{
			"inputs": [
				{
					"internalType": "uint256",
					"name": "",
					"type": "uint256"
				}
			],
			"name": "people",
			"outputs": [
				{
					"internalType": "string",
					"name": "name",
					"type": "string"
				},
				{
					"internalType": "uint256",
					"name": "favoriteNumber",
					"type": "uint256"
				}
			],
			"stateMutability": "view",
			"type": "function"
		},
		{
			"inputs": [],
			"name": "returnNumbers",
			"outputs": [
				{
					"internalType": "uint256[]",
					"name": "",
					"type": "uint256[]"
				}
			],
			"stateMutability": "view",
			"type": "function"
		},
		{
			"inputs": [
				{
					"internalType": "string",
					"name": "_name",
					"type": "string"
				},
				{
					"internalType": "uint256",
					"name": "_favoriteNumber",
					"type": "uint256"
				}
			],
			"name": "setNameToFavoriteNumber",
			"outputs": [],
			"stateMutability": "nonpayable",
			"type": "function"
		},
		{
			"inputs": [],
			"name": "state",
			"outputs": [
				{
					"internalType": "enum SimpleStrorage.ContractState",
					"name": "",
					"type": "uint8"
				}
			],
			"stateMutability": "view",
			"type": "function"
		},
		{
			"inputs": [
				{
					"internalType": "uint256",
					"name": "_favoriteNumber",
					"type": "uint256"
				}
			],
			"name": "store",
			"outputs": [],
			"stateMutability": "nonpayable",
			"type": "function"
		},
		{
			"inputs": [
				{
					"internalType": "uint256",
					"name": "_favoriteNumber",
					"type": "uint256"
				}
			],
			"name": "storeNewNumber",
			"outputs": [],
			"stateMutability": "nonpayable",
			"type": "function"
		},
		{
			"inputs": [
				{
					"internalType": "uint256",
					"name": "_favoriteNumber",
					"type": "uint256"
				}
			],
			"name": "storeNumber",
			"outputs": [],
			"stateMutability": "nonpayable",
			"type": "function"
		},
		{
			"inputs": [],
			"name": "sumToFavoriteNumber",
			"outputs": [
				{
					"internalType": "uint256",
					"name": "",
					"type": "uint256"
				}
			],
			"stateMutability": "view",
			"type": "function"
		},
		{
			"inputs": [],
			"name": "testExternalFunction",
			"outputs": [
				{
					"internalType": "string",
					"name": "",
					"type": "string"
				}
			],
			"stateMutability": "view",
			"type": "function"
		},
		{
			"inputs": [
				{
					"internalType": "uint256",
					"name": "_newNumber",
					"type": "uint256"
				}
			],
			"name": "updateNumber",
			"outputs": [
				{
					"internalType": "uint256",
					"name": "",
					"type": "uint256"
				}
			],
			"stateMutability": "pure",
			"type": "function"
		}
	]
}